{
  "transactions": [
    {
      "hash": "0xcfcfa71c45a4ac9052be0b65e71dc740b2bb0f086e4fcd009c9b3341b9e12ffb",
      "transactionType": "CREATE",
      "contractName": "DexterityTradingPayloadFacet",
      "contractAddress": "0xeB116be9f6e08463d179937f892FCdfb5eA0A4F6",
      "function": null,
      "arguments": null,
      "transaction": {
        "type": "0x02",
        "from": "0xc0388cbc4398856c06628dca4b25857591bd34a4",
        "gas": "0x394d33",
        "value": "0x0",
        "data": "0x608060405234801561001057600080fd5b5061089a806100206000396000f3fe608060405234801561001057600080fd5b50600436106100415760003560e01c80631625d3f614610046578063cf6185e11461006f578063f4c210ed14610082575b600080fd5b6100596100543660046105df565b610095565b6040516100669190610642565b60405180910390f35b61005961007d366004610692565b6102bf565b6100596100903660046106e5565b610482565b604080516060808201835260008083526020808401829052838501929092526001600160a01b0387811682527e0dc01957d44779ea1c2b4a9fa540be24317302457b4ed6f3a3afe6e232aa18835284822054873583527e0dc01957d44779ea1c2b4a9fa540be24317302457b4ed6f3a3afe6e232aa169093529390206001015491927e0dc01957d44779ea1c2b4a9fa540be24317302457b4ed6f3a3afe6e232aa149216806101575760405163350b944160e11b815260040160405180910390fd5b6000816001600160a01b031663313ce5676040518163ffffffff1660e01b8152600401602060405180830381865afa158015610197573d6000803e3d6000fd5b505050506040513d601f19601f820116820180604052508101906101bb9190610742565b90506000876040516020016102249190600061010082019050823582526020830135602083015260408301356040830152606083013560608301526080830135608083015260a083013560a083015260c083013560c083015260e083013560e083015292915050565b60408051601f198184030181526060808401835260208085018c8152858501888152955283519081018c9052935184840152825180850384018152908401835260808085018990528351808603909101815260a0850190935261028d939192909160c00161075b565b60408051601f198184030181526060830182529935825260208201989098529687019790975250939695505050505050565b604080516060808201835260008083526020830181905292820152907e0dc01957d44779ea1c2b4a9fa540be24317302457b4ed6f3a3afe6e232aa146001600160a01b03861660009081526004820160209081526040808320549051939450926103fe91889101813581526020808301359082015260408083013590820152606080830135908201526080808301359082015260a0808301359082015260c0808301359082015260e08083013590820152610100808301359082015261012080830135908201526101408083013590820152610160808301359082015261018080830135908201526101a080830135908201526101c080830135908201526101e0808301359082015261020080830135908201526102208083013590820152610240808301359082015261026091820135918101919091526102800190565b6040516020818303038152906040528560405160200161041e919061079e565b60408051601f1981840301815282825260208301869052910160408051601f198184030181529082905261045693929160200161075b565b60408051601f198184030181526060830182526000808452602084015290820152979650505050505050565b604080516060808201835260008083526020830181905292820152907e0dc01957d44779ea1c2b4a9fa540be24317302457b4ed6f3a3afe6e232aa146001600160a01b038616600090815260048201602090815260408083205490519394509261058a91889101813581526020808301359082015260408083013590820152606080830135908201526080808301359082015260a0808301359082015260c0808301359082015260e08083013590820152610100808301359082015261012080830135908201526101408083013590820152610160808301359082015261018080830135908201526101a080830135908201526101c091820135918101919091526101e00190565b6040516020818303038152906040528560405160200161041e919061081a565b80356001600160a01b03811681146105c157600080fd5b919050565b600061010082840312156105d957600080fd5b50919050565b600080600061014084860312156105f557600080fd5b6105fe846105aa565b925061060d85602086016105c6565b915061012084013590509250925092565b60005b83811015610639578181015183820152602001610621565b50506000910152565b60208152815160208201526020820151604082015260006040830151606080840152805180608085015261067d8160a086016020850161061e565b601f01601f19169290920160a0019392505050565b60008060008385036103a08112156106a957600080fd5b6106b2856105aa565b9350610280601f19820112156106c757600080fd5b506020840191506106dc856102a086016105c6565b90509250925092565b60008060008385036102408112156106fc57600080fd5b610705856105aa565b93506101e0601f198201121561071a57600080fd5b60208501925060406101ff198201121561073357600080fd5b50610200840190509250925092565b60006020828403121561075457600080fd5b5051919050565b6000845161076d81846020890161061e565b84519083019061078181836020890161061e565b845191019061079481836020880161061e565b0195945050505050565b61010081018235600281106107b257600080fd5b825260208381013590830152604080840135908301526060830135600481106107da57600080fd5b60608301526080830135600381106107f157600080fd5b608083015260a0838101359083015260c0808401359083015260e0808401359083015292915050565b6040810182356fffffffffffffffffffffffffffffffff811680821461083f57600080fd5b835250602083013580151580821461085657600080fd5b80602085015250509291505056fea264697066735822122013c7521e046313814eef7e633d3b28e1667b498d4840f385197c80111dfbc1c664736f6c63430008120033",
        "nonce": "0x1d",
        "accessList": []
      },
      "additionalContracts": [],
      "isFixedGasLimit": false
    },
    {
      "hash": "0x5980e27d2918b0a6306ce965f3b52de19a230e4b78dd7b518fec2aa4a9e7b908",
      "transactionType": "CALL",
      "contractName": null,
      "contractAddress": "0x4B2A962eDdf1a3aF48Aa8648621e9Fb7670809c8",
      "function": "diamondCut((address,uint8,bytes4[])[],address,bytes)",
      "arguments": [
        "[(0xeB116be9f6e08463d179937f892FCdfb5eA0A4F6, 0, [0xf4c210ed, 0x1625d3f6, 0xcf6185e1])]",
        "0x0000000000000000000000000000000000000000",
        "0x00"
      ],
      "transaction": {
        "type": "0x02",
        "from": "0xc0388cbc4398856c06628dca4b25857591bd34a4",
        "to": "0x4b2a962eddf1a3af48aa8648621e9fb7670809c8",
        "gas": "0x2bafd",
        "value": "0x0",
        "data": "0x1f931c1c00000000000000000000000000000000000000000000000000000000000000600000000000000000000000000000000000000000000000000000000000000000000000000000000000000000000000000000000000000000000000000000018000000000000000000000000000000000000000000000000000000000000000010000000000000000000000000000000000000000000000000000000000000020000000000000000000000000eb116be9f6e08463d179937f892fcdfb5ea0a4f6000000000000000000000000000000000000000000000000000000000000000000000000000000000000000000000000000000000000000000000000000000600000000000000000000000000000000000000000000000000000000000000003f4c210ed000000000000000000000000000000000000000000000000000000001625d3f600000000000000000000000000000000000000000000000000000000cf6185e10000000000000000000000000000000000000000000000000000000000000000000000000000000000000000000000000000000000000000000000010000000000000000000000000000000000000000000000000000000000000000",
        "nonce": "0x1e",
        "accessList": []
      },
      "additionalContracts": [],
      "isFixedGasLimit": false
    }
  ],
  "receipts": [
    {
      "transactionHash": "0xcfcfa71c45a4ac9052be0b65e71dc740b2bb0f086e4fcd009c9b3341b9e12ffb",
      "transactionIndex": "0x3",
      "blockHash": "0x635348b705e5c59c10aa95c9d4f78c16480d73800f7abf5994612b6d24e9e53b",
      "blockNumber": "0x665d44d",
      "from": "0xc0388cBC4398856c06628dca4B25857591BD34A4",
      "to": null,
      "cumulativeGasUsed": "0x3b3d0c",
      "gasUsed": "0x27fda6",
      "contractAddress": "0xeB116be9f6e08463d179937f892FCdfb5eA0A4F6",
      "logs": [],
      "status": "0x1",
      "logsBloom": "0x00000000000000000000000000000000000000000000000000000000000000000000000000000000000000000000000000000000000000000000000000000000000000000000000000000000000000000000000000000000000000000000000000000000000000000000000000000000000000000000000000000000000000000000000000000000000000000000000000000000000000000000000000000000000000000000000000000000000000000000000000000000000000000000000000000000000000000000000000000000000000000000000000000000000000000000000000000000000000000000000000000000000000000000000000000000",
      "type": "0x2",
      "effectiveGasPrice": "0x5f5e100"
    },
    {
      "transactionHash": "0x5980e27d2918b0a6306ce965f3b52de19a230e4b78dd7b518fec2aa4a9e7b908",
      "transactionIndex": "0x1",
      "blockHash": "0x3eff5b71b104bc46321d531ca5ea11056d488c154ba4372ec908b5004d890298",
      "blockNumber": "0x665d46b",
      "from": "0xc0388cBC4398856c06628dca4B25857591BD34A4",
      "to": "0x4B2A962eDdf1a3aF48Aa8648621e9Fb7670809c8",
      "cumulativeGasUsed": "0x9c327",
      "gasUsed": "0x9c327",
      "contractAddress": null,
      "logs": [
        {
          "address": "0x4B2A962eDdf1a3aF48Aa8648621e9Fb7670809c8",
          "topics": [
            "0x8faa70878671ccd212d20771b795c50af8fd3ff6cf27f4bde57e5d4de0aeb673"
          ],
          "data": "0x00000000000000000000000000000000000000000000000000000000000000600000000000000000000000000000000000000000000000000000000000000000000000000000000000000000000000000000000000000000000000000000018000000000000000000000000000000000000000000000000000000000000000010000000000000000000000000000000000000000000000000000000000000020000000000000000000000000eb116be9f6e08463d179937f892fcdfb5ea0a4f6000000000000000000000000000000000000000000000000000000000000000000000000000000000000000000000000000000000000000000000000000000600000000000000000000000000000000000000000000000000000000000000003f4c210ed000000000000000000000000000000000000000000000000000000001625d3f600000000000000000000000000000000000000000000000000000000cf6185e10000000000000000000000000000000000000000000000000000000000000000000000000000000000000000000000000000000000000000000000010000000000000000000000000000000000000000000000000000000000000000",
          "blockHash": "0x3eff5b71b104bc46321d531ca5ea11056d488c154ba4372ec908b5004d890298",
          "blockNumber": "0x665d46b",
          "transactionHash": "0x5980e27d2918b0a6306ce965f3b52de19a230e4b78dd7b518fec2aa4a9e7b908",
          "transactionIndex": "0x1",
          "logIndex": "0x0",
          "removed": false
        }
      ],
      "status": "0x1",
      "logsBloom": "0x00000000000000000000000000000000000000000000000000000000000000000000000200000000000000000000000000000000000000000000000000000000000000000000000000000000000000000000000001000000000800000000000000000000010000000000000000000000000000000000000000000000000000000020000000000000000000000000000000000000000000000000000000000000000000000000000000000000000000000000000000000000000000000000000000000000000000000000004000000000000000000000000000000000000000000000000000000000000000000000000000000000000000000000000000000000",
      "type": "0x2",
      "effectiveGasPrice": "0x5f5e100"
    }
  ],
  "libraries": [],
  "pending": [],
  "returns": {},
  "timestamp": 1688357703,
  "chain": 42161,
  "multi": false,
  "commit": "1b8871a"
}